{
  "_format": "hh-sol-artifact-1",
  "contractName": "FileStorage",
  "sourceName": "src/FileStorage.sol",
  "abi": [
    {
      "inputs": [],
      "stateMutability": "nonpayable",
      "type": "constructor"
    },
    {
      "anonymous": false,
      "inputs": [
        {
          "indexed": true,
          "internalType": "bytes32",
          "name": "fileHash",
          "type": "bytes32"
        },
        {
          "indexed": true,
          "internalType": "address",
          "name": "deleter",
          "type": "address"
        },
        {
          "indexed": false,
          "internalType": "uint256",
          "name": "timestamp",
          "type": "uint256"
        }
      ],
      "name": "FileDeleted",
      "type": "event"
    },
    {
      "anonymous": false,
      "inputs": [
        {
          "indexed": true,
          "internalType": "bytes32",
          "name": "fileHash",
          "type": "bytes32"
        },
        {
          "indexed": true,
          "internalType": "address",
          "name": "downloader",
          "type": "address"
        },
        {
          "indexed": false,
          "internalType": "uint256",
          "name": "timestamp",
          "type": "uint256"
        }
      ],
      "name": "FileDownloaded",
      "type": "event"
    },
    {
      "anonymous": false,
      "inputs": [
        {
          "indexed": true,
          "internalType": "bytes32",
          "name": "fileHash",
          "type": "bytes32"
        },
        {
          "indexed": true,
          "internalType": "address",
          "name": "uploader",
          "type": "address"
        },
        {
          "indexed": false,
          "internalType": "string",
          "name": "filename",
          "type": "string"
        },
        {
          "indexed": false,
          "internalType": "uint256",
          "name": "size",
          "type": "uint256"
        },
        {
          "indexed": false,
          "internalType": "uint256",
          "name": "timestamp",
          "type": "uint256"
        },
        {
          "indexed": false,
          "internalType": "string",
          "name": "merkleRoot",
          "type": "string"
        }
      ],
      "name": "FileUploaded",
      "type": "event"
    },
    {
      "anonymous": false,
      "inputs": [
        {
          "indexed": true,
          "internalType": "address",
          "name": "previousOwner",
          "type": "address"
        },
        {
          "indexed": true,
          "internalType": "address",
          "name": "newOwner",
          "type": "address"
        }
      ],
      "name": "OwnershipTransferred",
      "type": "event"
    },
    {
      "anonymous": false,
      "inputs": [
        {
          "indexed": true,
          "internalType": "bytes32",
          "name": "fileHash",
          "type": "bytes32"
        },
        {
          "indexed": true,
          "internalType": "address",
          "name": "verifier",
          "type": "address"
        },
        {
          "indexed": false,
          "internalType": "bool",
          "name": "isValid",
          "type": "bool"
        },
        {
          "indexed": false,
          "internalType": "uint256",
          "name": "timestamp",
          "type": "uint256"
        }
      ],
      "name": "ProofVerified",
      "type": "event"
    },
    {
      "inputs": [
        {
          "internalType": "bytes32",
          "name": "fileHash",
          "type": "bytes32"
        },
        {
          "internalType": "address",
          "name": "user",
          "type": "address"
        }
      ],
      "name": "authorizeUser",
      "outputs": [],
      "stateMutability": "nonpayable",
      "type": "function"
    },
    {
      "inputs": [
        {
          "internalType": "address",
          "name": "",
          "type": "address"
        }
      ],
      "name": "authorizedDownloaders",
      "outputs": [
        {
          "internalType": "bool",
          "name": "",
          "type": "bool"
        }
      ],
      "stateMutability": "view",
      "type": "function"
    },
    {
      "inputs": [
        {
          "internalType": "address",
          "name": "",
          "type": "address"
        }
      ],
      "name": "authorizedUploaders",
      "outputs": [
        {
          "internalType": "bool",
          "name": "",
          "type": "bool"
        }
      ],
      "stateMutability": "view",
      "type": "function"
    },
    {
      "inputs": [
        {
          "internalType": "bytes32",
          "name": "fileHash",
          "type": "bytes32"
        }
      ],
      "name": "deleteFile",
      "outputs": [],
      "stateMutability": "nonpayable",
      "type": "function"
    },
    {
      "inputs": [
        {
          "internalType": "bytes32",
          "name": "fileHash",
          "type": "bytes32"
        }
      ],
      "name": "downloadFile",
      "outputs": [],
      "stateMutability": "nonpayable",
      "type": "function"
    },
    {
      "inputs": [
        {
          "internalType": "bytes32",
          "name": "",
          "type": "bytes32"
        },
        {
          "internalType": "uint256",
          "name": "",
          "type": "uint256"
        }
      ],
      "name": "fileUsers",
      "outputs": [
        {
          "internalType": "address",
          "name": "",
          "type": "address"
        }
      ],
      "stateMutability": "view",
      "type": "function"
    },
    {
      "inputs": [
        {
          "internalType": "bytes32",
          "name": "",
          "type": "bytes32"
        }
      ],
      "name": "files",
      "outputs": [
        {
          "internalType": "bytes32",
          "name": "fileHash",
          "type": "bytes32"
        },
        {
          "internalType": "address",
          "name": "uploader",
          "type": "address"
        },
        {
          "internalType": "string",
          "name": "filename",
          "type": "string"
        },
        {
          "internalType": "uint256",
          "name": "size",
          "type": "uint256"
        },
        {
          "internalType": "uint256",
          "name": "uploadTimestamp",
          "type": "uint256"
        },
        {
          "internalType": "string",
          "name": "merkleRoot",
          "type": "string"
        },
        {
          "internalType": "bool",
          "name": "isActive",
          "type": "bool"
        }
      ],
      "stateMutability": "view",
      "type": "function"
    },
    {
      "inputs": [
        {
          "internalType": "bytes32",
          "name": "fileHash",
          "type": "bytes32"
        }
      ],
      "name": "getFileMetadata",
      "outputs": [
        {
          "internalType": "bytes32",
          "name": "",
          "type": "bytes32"
        },
        {
          "internalType": "address",
          "name": "",
          "type": "address"
        },
        {
          "internalType": "string",
          "name": "",
          "type": "string"
        },
        {
          "internalType": "uint256",
          "name": "",
          "type": "uint256"
        },
        {
          "internalType": "uint256",
          "name": "",
          "type": "uint256"
        },
        {
          "internalType": "string",
          "name": "",
          "type": "string"
        },
        {
          "internalType": "bool",
          "name": "",
          "type": "bool"
        }
      ],
      "stateMutability": "view",
      "type": "function"
    },
    {
      "inputs": [
        {
          "internalType": "bytes32",
          "name": "fileHash",
          "type": "bytes32"
        }
      ],
      "name": "getFileUsers",
      "outputs": [
        {
          "internalType": "address[]",
          "name": "",
          "type": "address[]"
        }
      ],
      "stateMutability": "view",
      "type": "function"
    },
    {
      "inputs": [
        {
          "internalType": "bytes32",
          "name": "fileHash",
          "type": "bytes32"
        }
      ],
      "name": "getProof",
      "outputs": [
        {
          "internalType": "bytes32",
          "name": "",
          "type": "bytes32"
        },
        {
          "internalType": "bytes32[]",
          "name": "",
          "type": "bytes32[]"
        },
        {
          "internalType": "uint256[]",
          "name": "",
          "type": "uint256[]"
        },
        {
          "internalType": "bool",
          "name": "",
          "type": "bool"
        },
        {
          "internalType": "uint256",
          "name": "",
          "type": "uint256"
        }
      ],
      "stateMutability": "view",
      "type": "function"
    },
    {
      "inputs": [],
      "name": "getTotalFiles",
      "outputs": [
        {
          "internalType": "uint256",
          "name": "",
          "type": "uint256"
        }
      ],
      "stateMutability": "view",
      "type": "function"
    },
    {
      "inputs": [
        {
          "internalType": "address",
          "name": "user",
          "type": "address"
        }
      ],
      "name": "getUserFiles",
      "outputs": [
        {
          "internalType": "bytes32[]",
          "name": "",
          "type": "bytes32[]"
        }
      ],
      "stateMutability": "view",
      "type": "function"
    },
    {
      "inputs": [
        {
          "internalType": "bytes32",
          "name": "fileHash",
          "type": "bytes32"
        },
        {
          "internalType": "address",
          "name": "user",
          "type": "address"
        }
      ],
      "name": "isUserAuthorized",
      "outputs": [
        {
          "internalType": "bool",
          "name": "",
          "type": "bool"
        }
      ],
      "stateMutability": "view",
      "type": "function"
    },
    {
      "inputs": [],
      "name": "maxFileSize",
      "outputs": [
        {
          "internalType": "uint256",
          "name": "",
          "type": "uint256"
        }
      ],
      "stateMutability": "view",
      "type": "function"
    },
    {
      "inputs": [],
      "name": "owner",
      "outputs": [
        {
          "internalType": "address",
          "name": "",
          "type": "address"
        }
      ],
      "stateMutability": "view",
      "type": "function"
    },
    {
      "inputs": [
        {
          "internalType": "bytes32",
          "name": "",
          "type": "bytes32"
        }
      ],
      "name": "proofs",
      "outputs": [
        {
          "internalType": "bytes32",
          "name": "merkleRoot",
          "type": "bytes32"
        },
        {
          "internalType": "bool",
          "name": "isValid",
          "type": "bool"
        },
        {
          "internalType": "uint256",
          "name": "verificationTimestamp",
          "type": "uint256"
        }
      ],
      "stateMutability": "view",
      "type": "function"
    },
    {
      "inputs": [],
      "name": "publicUploadEnabled",
      "outputs": [
        {
          "internalType": "bool",
          "name": "",
          "type": "bool"
        }
      ],
      "stateMutability": "view",
      "type": "function"
    },
    {
      "inputs": [],
      "name": "renounceOwnership",
      "outputs": [],
      "stateMutability": "nonpayable",
      "type": "function"
    },
    {
      "inputs": [
        {
          "internalType": "bytes32",
          "name": "fileHash",
          "type": "bytes32"
        },
        {
          "internalType": "address",
          "name": "user",
          "type": "address"
        }
      ],
      "name": "revokeUser",
      "outputs": [],
      "stateMutability": "nonpayable",
      "type": "function"
    },
    {
      "inputs": [
        {
          "internalType": "address",
          "name": "downloader",
          "type": "address"
        },
        {
          "internalType": "bool",
          "name": "authorized",
          "type": "bool"
        }
      ],
      "name": "setAuthorizedDownloader",
      "outputs": [],
      "stateMutability": "nonpayable",
      "type": "function"
    },
    {
      "inputs": [
        {
          "internalType": "address",
          "name": "uploader",
          "type": "address"
        },
        {
          "internalType": "bool",
          "name": "authorized",
          "type": "bool"
        }
      ],
      "name": "setAuthorizedUploader",
      "outputs": [],
      "stateMutability": "nonpayable",
      "type": "function"
    },
    {
      "inputs": [
        {
          "internalType": "uint256",
          "name": "newMaxSize",
          "type": "uint256"
        }
      ],
      "name": "setMaxFileSize",
      "outputs": [],
      "stateMutability": "nonpayable",
      "type": "function"
    },
    {
      "inputs": [
        {
          "internalType": "bool",
          "name": "enabled",
          "type": "bool"
        }
      ],
      "name": "setPublicUploadEnabled",
      "outputs": [],
      "stateMutability": "nonpayable",
      "type": "function"
    },
    {
      "inputs": [
        {
          "internalType": "uint256",
          "name": "newFee",
          "type": "uint256"
        }
      ],
      "name": "setStorageFee",
      "outputs": [],
      "stateMutability": "nonpayable",
      "type": "function"
    },
    {
      "inputs": [],
      "name": "storageFee",
      "outputs": [
        {
          "internalType": "uint256",
          "name": "",
          "type": "uint256"
        }
      ],
      "stateMutability": "view",
      "type": "function"
    },
    {
      "inputs": [
        {
          "internalType": "address",
          "name": "newOwner",
          "type": "address"
        }
      ],
      "name": "transferOwnership",
      "outputs": [],
      "stateMutability": "nonpayable",
      "type": "function"
    },
    {
      "inputs": [
        {
          "internalType": "bytes32",
          "name": "fileHash",
          "type": "bytes32"
        },
        {
          "internalType": "string",
          "name": "filename",
          "type": "string"
        },
        {
          "internalType": "uint256",
          "name": "size",
          "type": "uint256"
        },
        {
          "internalType": "string",
          "name": "merkleRoot",
          "type": "string"
        }
      ],
      "name": "uploadFile",
      "outputs": [],
      "stateMutability": "payable",
      "type": "function"
    },
    {
      "inputs": [
        {
          "internalType": "address",
          "name": "",
          "type": "address"
        },
        {
          "internalType": "uint256",
          "name": "",
          "type": "uint256"
        }
      ],
      "name": "userFiles",
      "outputs": [
        {
          "internalType": "bytes32",
          "name": "",
          "type": "bytes32"
        }
      ],
      "stateMutability": "view",
      "type": "function"
    },
    {
      "inputs": [
        {
          "internalType": "bytes32",
          "name": "fileHash",
          "type": "bytes32"
        },
        {
          "internalType": "bytes32",
          "name": "merkleRoot",
          "type": "bytes32"
        },
        {
          "internalType": "bytes32[]",
          "name": "proof",
          "type": "bytes32[]"
        },
        {
          "internalType": "uint256[]",
          "name": "indices",
          "type": "uint256[]"
        }
      ],
      "name": "verifyProof",
      "outputs": [
        {
          "internalType": "bool",
          "name": "",
          "type": "bool"
        }
      ],
      "stateMutability": "nonpayable",
      "type": "function"
    },
    {
      "inputs": [],
      "name": "withdrawFees",
      "outputs": [],
      "stateMutability": "nonpayable",
      "type": "function"
    }
  ],
  "bytecode": "0x6080604052630640000060095566038d7ea4c68000600a55600b805460ff1916600117905534801561003057600080fd5b5061003a33610075565b6001808055336000908152600760209081526040808320805460ff1990811686179091556008909252909120805490911690911790556100c5565b600080546001600160a01b038381166001600160a01b0319831681178455604051919092169283917f8be0079c531659141344cd1fd0a4f28419497f9722a3daafe3b4186f6b6457e09190a35050565b6120df806100d46000396000f3fe6080604052600436106101cd5760003560e01c8063766e0d33116100f7578063be5b9b6011610095578063dfa7ff3411610064578063dfa7ff34146105cf578063e23527f0146105ef578063f2fde38b14610609578063f9ec53151461062957600080fd5b8063be5b9b6014610515578063cc7ac3b614610535578063cee4dc8c14610565578063d881ae87146105af57600080fd5b80639103edbf116100d15780639103edbf1461049557806398c9adff146104b55780639ad64f93146104d5578063a30e992c146104f557600080fd5b8063766e0d331461044c578063773f0b18146104615780638da5cb5b1461047757600080fd5b8063436bc49c1161016f57806367233ed81161013e57806367233ed8146103e45780636ab799f1146103f7578063715018a614610417578063718f38a61461042c57600080fd5b8063436bc49c14610320578063444d95b014610340578063476343ee1461039c57806365f35371146103b157600080fd5b80631b80bb3a116101ab5780631b80bb3a146102555780631fc379221461028657806320033f0e146102b35780633b8f4908146102f357600080fd5b80631376d017146101d257806315391a58146101fb57806317f4a5211461021d575b600080fd5b3480156101de57600080fd5b506101e860095481565b6040519081526020015b60405180910390f35b34801561020757600080fd5b5061021b610216366004611911565b610649565b005b34801561022957600080fd5b5061023d610238366004611933565b610664565b6040516001600160a01b0390911681526020016101f2565b34801561026157600080fd5b50610275610270366004611955565b61069c565b6040516101f29594939291906119a9565b34801561029257600080fd5b506102a66102a1366004611a25565b6107ca565b6040516101f29190611a40565b3480156102bf57600080fd5b506102e36102ce366004611a25565b60086020526000908152604090205460ff1681565b60405190151581526020016101f2565b3480156102ff57600080fd5b5061031361030e366004611955565b610836565b6040516101f29190611a53565b34801561032c57600080fd5b5061021b61033b366004611aa0565b6108a1565b34801561034c57600080fd5b5061038161035b366004611955565b600460208190526000918252604090912080546003820154919092015460ff9091169083565b604080519384529115156020840152908201526060016101f2565b3480156103a857600080fd5b5061021b6108d4565b3480156103bd57600080fd5b506103d16103cc366004611955565b61095d565b6040516101f29796959493929190611b19565b61021b6103f2366004611c2f565b610b20565b34801561040357600080fd5b5061021b610412366004611955565b610dbf565b34801561042357600080fd5b5061021b610f2e565b34801561043857600080fd5b506101e8610447366004611ca6565b610f42565b34801561045857600080fd5b506101e8610f73565b34801561046d57600080fd5b506101e8600a5481565b34801561048357600080fd5b506000546001600160a01b031661023d565b3480156104a157600080fd5b5061021b6104b0366004611cd0565b610f83565b3480156104c157600080fd5b506103d16104d0366004611955565b61113c565b3480156104e157600080fd5b5061021b6104f0366004611955565b611294565b34801561050157600080fd5b5061021b610510366004611955565b6112a1565b34801561052157600080fd5b5061021b610530366004611cd0565b6114ad565b34801561054157600080fd5b506102e3610550366004611a25565b60076020526000908152604090205460ff1681565b34801561057157600080fd5b506102e3610580366004611cd0565b60008281526003602090815260408083206001600160a01b038516845260070190915290205460ff1692915050565b3480156105bb57600080fd5b5061021b6105ca366004611aa0565b6115a8565b3480156105db57600080fd5b5061021b6105ea366004611955565b6115db565b3480156105fb57600080fd5b50600b546102e39060ff1681565b34801561061557600080fd5b5061021b610624366004611a25565b6115e8565b34801561063557600080fd5b506102e3610644366004611d82565b611661565b610651611799565b600b805460ff1916911515919091179055565b6006602052816000526040600020818154811061068057600080fd5b6000918252602090912001546001600160a01b03169150829050565b60008181526003602052604081206001015460609081908390819086906001600160a01b03166106e75760405162461bcd60e51b81526004016106de90611e44565b60405180910390fd5b6000878152600460208181526040928390208054600382015493820154600183018054875181870281018701909852808852939692959094600288019460ff9092169391869183018282801561075c57602002820191906000526020600020905b815481526020019060010190808311610748575b50505050509350828054806020026020016040519081016040528092919081815260200182805480156107ae57602002820191906000526020600020905b81548152602001906001019080831161079a575b5050505050925096509650965096509650505091939590929450565b6001600160a01b03811660009081526005602090815260409182902080548351818402810184019094528084526060939283018282801561082a57602002820191906000526020600020905b815481526020019060010190808311610816575b50505050509050919050565b60008181526006602090815260409182902080548351818402810184019094528084526060939283018282801561082a57602002820191906000526020600020905b81546001600160a01b031681526001909101906020018083116108785750505050509050919050565b6108a9611799565b6001600160a01b03919091166000908152600860205260409020805460ff1916911515919091179055565b6108dc611799565b47806109205760405162461bcd60e51b81526020600482015260136024820152724e6f206665657320746f20776974686472617760681b60448201526064016106de565b600080546040516001600160a01b039091169183156108fc02918491818181858888f19350505050158015610959573d6000803e3d6000fd5b5050565b6000818152600360205260408120600101548190606090829081908390829088906001600160a01b03166109a35760405162461bcd60e51b81526004016106de90611e44565b6000898152600360208190526040909120805460018201549282015460048301546006840154600285018054959694956001600160a01b039095169490939291600588019160ff9091169085906109f990611e71565b80601f0160208091040260200160405190810160405280929190818152602001828054610a2590611e71565b8015610a725780601f10610a4757610100808354040283529160200191610a72565b820191906000526020600020905b815481529060010190602001808311610a5557829003601f168201915b50505050509450818054610a8590611e71565b80601f0160208091040260200160405190810160405280929190818152602001828054610ab190611e71565b8015610afe5780601f10610ad357610100808354040283529160200191610afe565b820191906000526020600020905b815481529060010190602001808311610ae157829003601f168201915b5050505050915098509850985098509850985098505050919395979092949650565b3360009081526007602052604090205460ff1680610b405750600b5460ff165b610b8c5760405162461bcd60e51b815260206004820152601e60248201527f4e6f7420617574686f72697a656420746f2075706c6f61642066696c6573000060448201526064016106de565b610b946117f3565b6000848152600360205260409020600101546001600160a01b031615610bf25760405162461bcd60e51b815260206004820152601360248201527246696c6520616c72656164792065786973747360681b60448201526064016106de565b600954821115610c4e5760405162461bcd60e51b815260206004820152602160248201527f46696c652073697a652065786365656473206d6178696d756d20616c6c6f77656044820152601960fa1b60648201526084016106de565b600a54341015610ca05760405162461bcd60e51b815260206004820152601860248201527f496e73756666696369656e742073746f7261676520666565000000000000000060448201526064016106de565b610cae600280546001019055565b60008481526003602052604090208481556001810180546001600160a01b0319163317905560028101610ce18582611efa565b506003810183905542600482015560058101610cfd8382611efa565b5060068181018054600160ff1991821681179092553360008181526007860160209081526040808320805490951686179094556005815283822080548087018255908352818320018b90558a82529485528281208054948501815581529390932090910180546001600160a01b031916831790555186907f4fd65ab323e60be3274cd82bbed2685014bf4cc64c0c30e1fc979f683080d54e90610da7908890889042908990611fba565b60405180910390a350610db960018055565b50505050565b60008181526003602052604090206001015481906001600160a01b0316610df85760405162461bcd60e51b81526004016106de90611e44565b600082815260036020526040902060060154829060ff16610e505760405162461bcd60e51b815260206004820152601260248201527146696c65206973206e6f742061637469766560701b60448201526064016106de565b600083815260036020526040902060018101546001600160a01b0316331480610e8357506000546001600160a01b031633145b610ee45760405162461bcd60e51b815260206004820152602c60248201527f4f6e6c792066696c65206f776e6572206f7220636f6e7472616374206f776e6560448201526b722063616e2064656c65746560a01b60648201526084016106de565b60068101805460ff19169055604051428152339085907f44784d2638eb6c2b2ef3dace8a8d89a892a4d4aedf4719f97d1864e303fbda94906020015b60405180910390a350505050565b610f36611799565b610f40600061184c565b565b60056020528160005260406000208181548110610f5e57600080fd5b90600052602060002001600091509150505481565b6000610f7e60025490565b905090565b60008281526003602052604090206001015482906001600160a01b0316610fbc5760405162461bcd60e51b81526004016106de90611e44565b600083815260036020526040902060018101546001600160a01b0316331480610fef57506000546001600160a01b031633145b6110595760405162461bcd60e51b815260206004820152603560248201527f4f6e6c792066696c65206f776e6572206f7220636f6e7472616374206f776e65604482015274722063616e20617574686f72697a6520757365727360581b60648201526084016106de565b6001600160a01b03831660009081526007820160205260408120805460ff19166001179055805b6000868152600660205260409020548110156110f757600086815260066020526040902080546001600160a01b0387169190839081106110c2576110c2611ff6565b6000918252602090912001546001600160a01b0316036110e557600191506110f7565b806110ef8161200c565b915050611080565b50806111355760008581526006602090815260408220805460018101825590835291200180546001600160a01b0319166001600160a01b0386161790555b5050505050565b60036020526000908152604090208054600182015460028301805492936001600160a01b039092169261116e90611e71565b80601f016020809104026020016040519081016040528092919081815260200182805461119a90611e71565b80156111e75780601f106111bc576101008083540402835291602001916111e7565b820191906000526020600020905b8154815290600101906020018083116111ca57829003601f168201915b50505050509080600301549080600401549080600501805461120890611e71565b80601f016020809104026020016040519081016040528092919081815260200182805461123490611e71565b80156112815780601f1061125657610100808354040283529160200191611281565b820191906000526020600020905b81548152906001019060200180831161126457829003601f168201915b5050506006909301549192505060ff1687565b61129c611799565b600955565b60008181526003602052604090206001015481906001600160a01b03166112da5760405162461bcd60e51b81526004016106de90611e44565b600082815260036020526040902060060154829060ff166113325760405162461bcd60e51b815260206004820152601260248201527146696c65206973206e6f742061637469766560701b60448201526064016106de565b3360009081526008602052604090205460ff168061138257506000805260036020527f3617319a054d772f909f7c479a2cebe5066e836a939412e32403c99029b92f00546001600160a01b031615155b6113ce5760405162461bcd60e51b815260206004820181905260248201527f4e6f7420617574686f72697a656420746f20646f776e6c6f61642066696c657360448201526064016106de565b6000838152600360209081526040808320338452600781019092529091205460ff1680611407575060018101546001600160a01b031633145b8061142157503360009081526008602052604090205460ff165b6114795760405162461bcd60e51b8152602060048201526024808201527f4e6f7420617574686f72697a656420746f20646f776e6c6f616420746869732060448201526366696c6560e01b60648201526084016106de565b604051428152339085907f134689260d977c8820d39f35ab2a85b84776f032a8d64b2a65feaaff5490ac0f90602001610f20565b60008281526003602052604090206001015482906001600160a01b03166114e65760405162461bcd60e51b81526004016106de90611e44565b600083815260036020526040902060018101546001600160a01b031633148061151957506000546001600160a01b031633145b6115805760405162461bcd60e51b815260206004820152603260248201527f4f6e6c792066696c65206f776e6572206f7220636f6e7472616374206f776e65604482015271722063616e207265766f6b6520757365727360701b60648201526084016106de565b6001600160a01b03909216600090815260079092016020525060409020805460ff1916905550565b6115b0611799565b6001600160a01b03919091166000908152600760205260409020805460ff1916911515919091179055565b6115e3611799565b600a55565b6115f0611799565b6001600160a01b0381166116555760405162461bcd60e51b815260206004820152602660248201527f4f776e61626c653a206e6577206f776e657220697320746865207a65726f206160448201526564647265737360d01b60648201526084016106de565b61165e8161184c565b50565b60008481526003602052604081206001015485906001600160a01b031661169a5760405162461bcd60e51b81526004016106de90611e44565b600086815260036020908152604080832090519092916116bf91600585019101612033565b60408051808303601f1901815282825280516020918201208184018b9052825180850383018152938301835283519382019390932060008c815260048352929092208a8155895192909314935061171d9160018401918a019061189c565b508551611733906002830190602089019061189c565b5060038101805460ff1916831515908117909155426004830181905560408051928352602083019190915233918b917fd70445ae79bfa82bd8c52e90ca89940dff8279c6c39f91265be2f4ae43e4cae2910160405180910390a350979650505050505050565b6000546001600160a01b03163314610f405760405162461bcd60e51b815260206004820181905260248201527f4f776e61626c653a2063616c6c6572206973206e6f7420746865206f776e657260448201526064016106de565b6002600154036118455760405162461bcd60e51b815260206004820152601f60248201527f5265656e7472616e637947756172643a207265656e7472616e742063616c6c0060448201526064016106de565b6002600155565b600080546001600160a01b038381166001600160a01b0319831681178455604051919092169283917f8be0079c531659141344cd1fd0a4f28419497f9722a3daafe3b4186f6b6457e09190a35050565b8280548282559060005260206000209081019282156118d7579160200282015b828111156118d75782518255916020019190600101906118bc565b506118e39291506118e7565b5090565b5b808211156118e357600081556001016118e8565b8035801515811461190c57600080fd5b919050565b60006020828403121561192357600080fd5b61192c826118fc565b9392505050565b6000806040838503121561194657600080fd5b50508035926020909101359150565b60006020828403121561196757600080fd5b5035919050565b600081518084526020808501945080840160005b8381101561199e57815187529582019590820190600101611982565b509495945050505050565b8581526000602060a0818401526119c360a084018861196e565b838103604085015286518082528288019183019060005b818110156119f6578351835292840192918401916001016119da565b50509515156060850152505050608001529392505050565b80356001600160a01b038116811461190c57600080fd5b600060208284031215611a3757600080fd5b61192c82611a0e565b60208152600061192c602083018461196e565b6020808252825182820181905260009190848201906040850190845b81811015611a945783516001600160a01b031683529284019291840191600101611a6f565b50909695505050505050565b60008060408385031215611ab357600080fd5b611abc83611a0e565b9150611aca602084016118fc565b90509250929050565b6000815180845260005b81811015611af957602081850181015186830182015201611add565b506000602082860101526020601f19601f83011685010191505092915050565b8781526001600160a01b038716602082015260e060408201819052600090611b4390830188611ad3565b86606084015285608084015282810360a0840152611b618186611ad3565b91505082151560c083015298975050505050505050565b634e487b7160e01b600052604160045260246000fd5b604051601f8201601f1916810167ffffffffffffffff81118282101715611bb757611bb7611b78565b604052919050565b600082601f830112611bd057600080fd5b813567ffffffffffffffff811115611bea57611bea611b78565b611bfd601f8201601f1916602001611b8e565b818152846020838601011115611c1257600080fd5b816020850160208301376000918101602001919091529392505050565b60008060008060808587031215611c4557600080fd5b84359350602085013567ffffffffffffffff80821115611c6457600080fd5b611c7088838901611bbf565b9450604087013593506060870135915080821115611c8d57600080fd5b50611c9a87828801611bbf565b91505092959194509250565b60008060408385031215611cb957600080fd5b611cc283611a0e565b946020939093013593505050565b60008060408385031215611ce357600080fd5b82359150611aca60208401611a0e565b600067ffffffffffffffff821115611d0d57611d0d611b78565b5060051b60200190565b600082601f830112611d2857600080fd5b81356020611d3d611d3883611cf3565b611b8e565b82815260059290921b84018101918181019086841115611d5c57600080fd5b8286015b84811015611d775780358352918301918301611d60565b509695505050505050565b60008060008060808587031215611d9857600080fd5b843593506020808601359350604086013567ffffffffffffffff80821115611dbf57600080fd5b818801915088601f830112611dd357600080fd5b8135611de1611d3882611cf3565b81815260059190911b8301840190848101908b831115611e0057600080fd5b938501935b82851015611e1e57843582529385019390850190611e05565b965050506060880135925080831115611e3657600080fd5b5050611c9a87828801611d17565b602080825260139082015272119a5b1948191bd95cc81b9bdd08195e1a5cdd606a1b604082015260600190565b600181811c90821680611e8557607f821691505b602082108103611ea557634e487b7160e01b600052602260045260246000fd5b50919050565b601f821115611ef557600081815260208120601f850160051c81016020861015611ed25750805b601f850160051c820191505b81811015611ef157828155600101611ede565b5050505b505050565b815167ffffffffffffffff811115611f1457611f14611b78565b611f2881611f228454611e71565b84611eab565b602080601f831160018114611f5d5760008415611f455750858301515b600019600386901b1c1916600185901b178555611ef1565b600085815260208120601f198616915b82811015611f8c57888601518255948401946001909101908401611f6d565b5085821015611faa5787850151600019600388901b60f8161c191681555b5050505050600190811b01905550565b608081526000611fcd6080830187611ad3565b8560208401528460408401528281036060840152611feb8185611ad3565b979650505050505050565b634e487b7160e01b600052603260045260246000fd5b60006001820161202c57634e487b7160e01b600052601160045260246000fd5b5060010190565b600080835461204181611e71565b60018281168015612059576001811461206e5761209d565b60ff198416875282151583028701945061209d565b8760005260208060002060005b858110156120945781548a82015290840190820161207b565b50505082870194505b5092969550505050505056fea26469706673582212209a241b11f483ff4ed0919d783b9fa588fddff8c772488686d150bb4554e7f6ea64736f6c63430008130033",
  "linkReferences": {},
  "deployedLinkReferences": {}
}