{
  "_format": "hh-sol-artifact-1",
  "contractName": "ProofVerification",
  "sourceName": "src/ProofVerification.sol",
  "abi": [
    {
      "anonymous": false,
      "inputs": [
        {
          "indexed": true,
          "internalType": "address",
          "name": "previousOwner",
          "type": "address"
        },
        {
          "indexed": true,
          "internalType": "address",
          "name": "newOwner",
          "type": "address"
        }
      ],
      "name": "OwnershipTransferred",
      "type": "event"
    },
    {
      "anonymous": false,
      "inputs": [
        {
          "indexed": true,
          "internalType": "bytes32",
          "name": "fileHash",
          "type": "bytes32"
        },
        {
          "indexed": true,
          "internalType": "bytes32",
          "name": "merkleRoot",
          "type": "bytes32"
        },
        {
          "indexed": true,
          "internalType": "address",
          "name": "submitter",
          "type": "address"
        },
        {
          "indexed": false,
          "internalType": "uint256",
          "name": "timestamp",
          "type": "uint256"
        }
      ],
      "name": "ProofSubmitted",
      "type": "event"
    },
    {
      "anonymous": false,
      "inputs": [
        {
          "indexed": true,
          "internalType": "bytes32",
          "name": "fileHash",
          "type": "bytes32"
        },
        {
          "indexed": true,
          "internalType": "bytes32",
          "name": "merkleRoot",
          "type": "bytes32"
        },
        {
          "indexed": true,
          "internalType": "address",
          "name": "verifier",
          "type": "address"
        },
        {
          "indexed": false,
          "internalType": "bool",
          "name": "isValid",
          "type": "bool"
        },
        {
          "indexed": false,
          "internalType": "uint256",
          "name": "timestamp",
          "type": "uint256"
        }
      ],
      "name": "ProofVerified",
      "type": "event"
    },
    {
      "anonymous": false,
      "inputs": [
        {
          "indexed": false,
          "internalType": "uint256",
          "name": "newThreshold",
          "type": "uint256"
        }
      ],
      "name": "VerificationThresholdUpdated",
      "type": "event"
    },
    {
      "inputs": [
        {
          "internalType": "bytes32[]",
          "name": "fileHashes",
          "type": "bytes32[]"
        },
        {
          "internalType": "bytes32[]",
          "name": "merkleRoots",
          "type": "bytes32[]"
        },
        {
          "internalType": "bytes32[][]",
          "name": "proofs",
          "type": "bytes32[][]"
        },
        {
          "internalType": "uint256[][]",
          "name": "indicesArray",
          "type": "uint256[][]"
        },
        {
          "internalType": "bytes32[]",
          "name": "leafHashes",
          "type": "bytes32[]"
        }
      ],
      "name": "batchVerifyProofs",
      "outputs": [],
      "stateMutability": "nonpayable",
      "type": "function"
    },
    {
      "inputs": [
        {
          "internalType": "bytes32",
          "name": "fileHash",
          "type": "bytes32"
        },
        {
          "internalType": "bool",
          "name": "isValid",
          "type": "bool"
        }
      ],
      "name": "emergencyVerify",
      "outputs": [],
      "stateMutability": "nonpayable",
      "type": "function"
    },
    {
      "inputs": [
        {
          "internalType": "bytes32",
          "name": "fileHash",
          "type": "bytes32"
        }
      ],
      "name": "getMerkleProof",
      "outputs": [
        {
          "internalType": "bytes32[]",
          "name": "",
          "type": "bytes32[]"
        },
        {
          "internalType": "uint256[]",
          "name": "",
          "type": "uint256[]"
        },
        {
          "internalType": "bytes32",
          "name": "",
          "type": "bytes32"
        },
        {
          "internalType": "bytes32",
          "name": "",
          "type": "bytes32"
        }
      ],
      "stateMutability": "view",
      "type": "function"
    },
    {
      "inputs": [
        {
          "internalType": "bytes32",
          "name": "fileHash",
          "type": "bytes32"
        }
      ],
      "name": "getVerificationResult",
      "outputs": [
        {
          "internalType": "bytes32",
          "name": "",
          "type": "bytes32"
        },
        {
          "internalType": "bytes32",
          "name": "",
          "type": "bytes32"
        },
        {
          "internalType": "bool",
          "name": "",
          "type": "bool"
        },
        {
          "internalType": "uint256",
          "name": "",
          "type": "uint256"
        },
        {
          "internalType": "uint256",
          "name": "",
          "type": "uint256"
        }
      ],
      "stateMutability": "view",
      "type": "function"
    },
    {
      "inputs": [
        {
          "internalType": "address",
          "name": "verifier",
          "type": "address"
        }
      ],
      "name": "getVerifierReputation",
      "outputs": [
        {
          "internalType": "uint256",
          "name": "",
          "type": "uint256"
        }
      ],
      "stateMutability": "view",
      "type": "function"
    },
    {
      "inputs": [
        {
          "internalType": "bytes32",
          "name": "fileHash",
          "type": "bytes32"
        }
      ],
      "name": "isFileVerified",
      "outputs": [
        {
          "internalType": "bool",
          "name": "",
          "type": "bool"
        }
      ],
      "stateMutability": "view",
      "type": "function"
    },
    {
      "inputs": [],
      "name": "maxProofLength",
      "outputs": [
        {
          "internalType": "uint256",
          "name": "",
          "type": "uint256"
        }
      ],
      "stateMutability": "view",
      "type": "function"
    },
    {
      "inputs": [
        {
          "internalType": "bytes32",
          "name": "",
          "type": "bytes32"
        }
      ],
      "name": "merkleProofs",
      "outputs": [
        {
          "internalType": "bytes32",
          "name": "leafHash",
          "type": "bytes32"
        },
        {
          "internalType": "bytes32",
          "name": "rootHash",
          "type": "bytes32"
        }
      ],
      "stateMutability": "view",
      "type": "function"
    },
    {
      "inputs": [],
      "name": "owner",
      "outputs": [
        {
          "internalType": "address",
          "name": "",
          "type": "address"
        }
      ],
      "stateMutability": "view",
      "type": "function"
    },
    {
      "inputs": [],
      "name": "renounceOwnership",
      "outputs": [],
      "stateMutability": "nonpayable",
      "type": "function"
    },
    {
      "inputs": [
        {
          "internalType": "uint256",
          "name": "newMaxLength",
          "type": "uint256"
        }
      ],
      "name": "setMaxProofLength",
      "outputs": [],
      "stateMutability": "nonpayable",
      "type": "function"
    },
    {
      "inputs": [
        {
          "internalType": "uint256",
          "name": "newReward",
          "type": "uint256"
        }
      ],
      "name": "setVerificationReward",
      "outputs": [],
      "stateMutability": "nonpayable",
      "type": "function"
    },
    {
      "inputs": [
        {
          "internalType": "uint256",
          "name": "newThreshold",
          "type": "uint256"
        }
      ],
      "name": "setVerificationThreshold",
      "outputs": [],
      "stateMutability": "nonpayable",
      "type": "function"
    },
    {
      "inputs": [
        {
          "internalType": "bytes32",
          "name": "fileHash",
          "type": "bytes32"
        },
        {
          "internalType": "bytes32",
          "name": "merkleRoot",
          "type": "bytes32"
        },
        {
          "internalType": "bytes32[]",
          "name": "proof",
          "type": "bytes32[]"
        },
        {
          "internalType": "uint256[]",
          "name": "indices",
          "type": "uint256[]"
        },
        {
          "internalType": "bytes32",
          "name": "leafHash",
          "type": "bytes32"
        }
      ],
      "name": "submitProof",
      "outputs": [],
      "stateMutability": "nonpayable",
      "type": "function"
    },
    {
      "inputs": [
        {
          "internalType": "address",
          "name": "newOwner",
          "type": "address"
        }
      ],
      "name": "transferOwnership",
      "outputs": [],
      "stateMutability": "nonpayable",
      "type": "function"
    },
    {
      "inputs": [
        {
          "internalType": "bytes32",
          "name": "",
          "type": "bytes32"
        }
      ],
      "name": "verificationResults",
      "outputs": [
        {
          "internalType": "bytes32",
          "name": "fileHash",
          "type": "bytes32"
        },
        {
          "internalType": "bytes32",
          "name": "merkleRoot",
          "type": "bytes32"
        },
        {
          "internalType": "bool",
          "name": "isValid",
          "type": "bool"
        },
        {
          "internalType": "uint256",
          "name": "verificationCount",
          "type": "uint256"
        },
        {
          "internalType": "uint256",
          "name": "timestamp",
          "type": "uint256"
        }
      ],
      "stateMutability": "view",
      "type": "function"
    },
    {
      "inputs": [],
      "name": "verificationReward",
      "outputs": [
        {
          "internalType": "uint256",
          "name": "",
          "type": "uint256"
        }
      ],
      "stateMutability": "view",
      "type": "function"
    },
    {
      "inputs": [],
      "name": "verificationThreshold",
      "outputs": [
        {
          "internalType": "uint256",
          "name": "",
          "type": "uint256"
        }
      ],
      "stateMutability": "view",
      "type": "function"
    },
    {
      "inputs": [
        {
          "internalType": "bytes32",
          "name": "",
          "type": "bytes32"
        }
      ],
      "name": "verifiedFiles",
      "outputs": [
        {
          "internalType": "bool",
          "name": "",
          "type": "bool"
        }
      ],
      "stateMutability": "view",
      "type": "function"
    },
    {
      "inputs": [
        {
          "internalType": "address",
          "name": "",
          "type": "address"
        }
      ],
      "name": "verifierReputation",
      "outputs": [
        {
          "internalType": "uint256",
          "name": "",
          "type": "uint256"
        }
      ],
      "stateMutability": "view",
      "type": "function"
    },
    {
      "inputs": [
        {
          "internalType": "bytes32",
          "name": "fileHash",
          "type": "bytes32"
        },
        {
          "internalType": "bytes32",
          "name": "merkleRoot",
          "type": "bytes32"
        },
        {
          "internalType": "bytes32[]",
          "name": "proof",
          "type": "bytes32[]"
        },
        {
          "internalType": "uint256[]",
          "name": "indices",
          "type": "uint256[]"
        },
        {
          "internalType": "bytes32",
          "name": "leafHash",
          "type": "bytes32"
        }
      ],
      "name": "verifyProof",
      "outputs": [
        {
          "internalType": "bool",
          "name": "",
          "type": "bool"
        }
      ],
      "stateMutability": "nonpayable",
      "type": "function"
    },
    {
      "inputs": [],
      "name": "withdrawRewards",
      "outputs": [],
      "stateMutability": "nonpayable",
      "type": "function"
    }
  ],
  "bytecode": "0x6080604052600360065566038d7ea4c680006007556103e860085534801561002657600080fd5b5061003033610039565b60018055610089565b600080546001600160a01b038381166001600160a01b0319831681178455604051919092169283917f8be0079c531659141344cd1fd0a4f28419497f9722a3daafe3b4186f6b6457e09190a35050565b611711806100986000396000f3fe608060405234801561001057600080fd5b50600436106101425760003560e01c8063738ee5e6116100b85780638da5cb5b1161007c5780638da5cb5b14610387578063a6859ba8146103a2578063c7b8981c146103b5578063c98da654146103bd578063e95c28c3146103c6578063f2fde38b146103d957600080fd5b8063738ee5e6146102b457806377e2a07a146102e7578063782184cf146102fa5780637e5d70a01461031d57806382bab3eb1461035e57600080fd5b806336beb6971161010a57806336beb697146101c457806338cc32c4146102345780636df1409f146102475780636e902e3114610286578063715018a6146102995780637166a9eb146102a157600080fd5b80630666fa0514610147578063082fa3741461015c578063167feb09146101785780631aea9fd1146101815780632e36b050146101a1575b600080fd5b61015a6101553660046111d5565b6103ec565b005b61016560075481565b6040519081526020015b60405180910390f35b61016560065481565b61016561018f3660046111ee565b60046020526000908152604090205481565b6101b46101af3660046111d5565b610458565b60405161016f949392919061121e565b6102056101d23660046111d5565b600090815260026020819052604090912080546001820154928201546003830154600490930154919460ff909116929190565b60405161016f959493929190948552602085019390935290151560408401526060830152608082015260a00190565b61015a6102423660046111d5565b610530565b6102716102553660046111d5565b6003602081905260009182526040909120600281015491015482565b6040805192835260208301919091520161016f565b61015a6102943660046111d5565b6105c3565b61015a6105d0565b61015a6102af366004611479565b6105e4565b6102d76102c23660046111d5565b60009081526005602052604090205460ff1690565b604051901515815260200161016f565b61015a6102f536600461154b565b610704565b6102d76103083660046111d5565b60056020526000908152604090205460ff1681565b61020561032b3660046111d5565b60026020819052600091825260409091208054600182015492820154600383015460049093015491939260ff9091169185565b61016561036c3660046111ee565b6001600160a01b031660009081526004602052604090205490565b6000546040516001600160a01b03909116815260200161016f565b6102d76103b0366004611580565b610752565b61015a610a60565b61016560085481565b61015a6103d4366004611580565b610aec565b61015a6103e73660046111ee565b610cda565b6103f4610d53565b600081116104535760405162461bcd60e51b815260206004820152602160248201527f4d6178206c656e677468206d7573742062652067726561746572207468616e206044820152600360fc1b60648201526084015b60405180910390fd5b600855565b600081815260036020818152604080842060028101549381015481548351818602810186019094528084526060968796909586958594600186019490928691908301828280156104c757602002820191906000526020600020905b8154815260200190600101908083116104b3575b505050505093508280548060200260200160405190810160405280929190818152602001828054801561051957602002820191906000526020600020905b815481526020019060010190808311610505575b505050505092509450945094509450509193509193565b610538610d53565b600081116105885760405162461bcd60e51b815260206004820181905260248201527f5468726573686f6c64206d7573742062652067726561746572207468616e2030604482015260640161044a565b60068190556040518181527f92f96a03bef2d117f6cb166c330c75b2d08091142a78ab5d19e3bff63fa6c5b59060200160405180910390a150565b6105cb610d53565b600755565b6105d8610d53565b6105e26000610dad565b565b835185511480156105f6575082518551145b8015610603575081518551145b8015610610575080518551145b6106545760405162461bcd60e51b8152602060048201526015602482015274082e4e4c2f240d8cadccee8d040dad2e6dac2e8c6d605b1b604482015260640161044a565b60005b85518110156106fc576106ea868281518110610675576106756115ff565b602002602001015186838151811061068f5761068f6115ff565b60200260200101518684815181106106a9576106a96115ff565b60200260200101518685815181106106c3576106c36115ff565b60200260200101518686815181106106dd576106dd6115ff565b6020026020010151610dfd565b806106f48161162b565b915050610657565b505050505050565b61070c610d53565b6000828152600560209081526040808320805494151560ff1995861681179091556002928390529220938455830180549092161790554260048201556001600390910155565b60008383600082511161079f5760405162461bcd60e51b815260206004820152601560248201527450726f6f662063616e6e6f7420626520656d70747960581b604482015260640161044a565b60008151116107ea5760405162461bcd60e51b8152602060048201526017602482015276496e64696365732063616e6e6f7420626520656d70747960481b604482015260640161044a565b805182511461080b5760405162461bcd60e51b815260040161044a90611644565b6008548251111561084f5760405162461bcd60e51b815260206004820152600e60248201526d50726f6f6620746f6f206c6f6e6760901b604482015260640161044a565b60008881526005602052604090205460ff16156108a65760405162461bcd60e51b8152602060048201526015602482015274119a5b1948185b1c9958591e481d995c9a599a5959605a1b604482015260640161044a565b60006108b488888888610fb3565b60008a81526002602052604090208054919250906108dd57898155600181018990554260048201555b33600090815260058201602052604090205460ff161561093f5760405162461bcd60e51b815260206004820181905260248201527f416c726561647920766572696669656420627920746869732061646472657373604482015260640161044a565b3360009081526005820160205260408120805460ff191660011790556003820180549161096b8361162b565b9190505550811561099b573360009081526004602052604081208054916109918361162b565b91905055506109d1565b33600090815260046020526040902054156109d1573360009081526004602052604081208054916109cb83611685565b91905055505b600654816003015410610a135760028101805483151560ff19918216811790925560008c815260056020526040902080549091169091179055610a138a6110a0565b60408051831515815242602082015233918b918d917f8a0ad150496891d984a0aabb6db8e35c32bfbd4a47acd2e8e4c44a5a6fad5481910160405180910390a45098975050505050505050565b610a68610d53565b4780610aaf5760405162461bcd60e51b81526020600482015260166024820152754e6f207265776172647320746f20776974686472617760501b604482015260640161044a565b600080546040516001600160a01b039091169183156108fc02918491818181858888f19350505050158015610ae8573d6000803e3d6000fd5b5050565b82826000825111610b375760405162461bcd60e51b815260206004820152601560248201527450726f6f662063616e6e6f7420626520656d70747960581b604482015260640161044a565b6000815111610b825760405162461bcd60e51b8152602060048201526017602482015276496e64696365732063616e6e6f7420626520656d70747960481b604482015260640161044a565b8051825114610ba35760405162461bcd60e51b815260040161044a90611644565b60085482511115610be75760405162461bcd60e51b815260206004820152600e60248201526d50726f6f6620746f6f206c6f6e6760901b604482015260640161044a565b610bef61111c565b60008781526005602052604090205460ff1615610c465760405162461bcd60e51b8152602060048201526015602482015274119a5b1948185b1c9958591e481d995c9a599a5959605a1b604482015260640161044a565b600087815260036020908152604090912086519091610c69918391890190611175565b508451610c7f9060018301906020880190611175565b506002810184905560038101879055604051428152339088908a907fbf6d5a75fbb0f09b654f2e10afef706c173808adbf06a5f41ac03ac15bfa62529060200160405180910390a450610cd160018055565b50505050505050565b610ce2610d53565b6001600160a01b038116610d475760405162461bcd60e51b815260206004820152602660248201527f4f776e61626c653a206e6577206f776e657220697320746865207a65726f206160448201526564647265737360d01b606482015260840161044a565b610d5081610dad565b50565b6000546001600160a01b031633146105e25760405162461bcd60e51b815260206004820181905260248201527f4f776e61626c653a2063616c6c6572206973206e6f7420746865206f776e6572604482015260640161044a565b600080546001600160a01b038381166001600160a01b0319831681178455604051919092169283917f8be0079c531659141344cd1fd0a4f28419497f9722a3daafe3b4186f6b6457e09190a35050565b6000610e0b85858585610fb3565b6000878152600260205260409020805491925090610e3457868155600181018690554260048201555b33600090815260058201602052604090205460ff1615610e965760405162461bcd60e51b815260206004820181905260248201527f416c726561647920766572696669656420627920746869732061646472657373604482015260640161044a565b3360009081526005820160205260408120805460ff1916600117905560038201805491610ec28361162b565b91905055508115610ef257336000908152600460205260408120805491610ee88361162b565b9190505550610f28565b3360009081526004602052604090205415610f2857336000908152600460205260408120805491610f2283611685565b91905055505b600654816003015410610f6a5760028101805483151560ff199182168117909255600089815260056020526040902080549091169091179055610f6a876110a0565b604080518315158152426020820152339188918a917f8a0ad150496891d984a0aabb6db8e35c32bfbd4a47acd2e8e4c44a5a6fad5481910160405180910390a450505050505050565b600081815b855181101561109457848181518110610fd357610fd36115ff565b602002602001015160000361103457858181518110610ff457610ff46115ff565b602002602001015182604051602001611017929190918252602082015260400190565b604051602081830303815290604052805190602001209150611082565b81868281518110611047576110476115ff565b6020026020010151604051602001611069929190918252602082015260400190565b6040516020818303038152906040528051906020012091505b8061108c8161162b565b915050610fb8565b50909414949350505050565b600081815260026020526040812060038101546007549192916110c3919061169c565b905060008260030154826110d791906116b9565b90507f92f96a03bef2d117f6cb166c330c75b2d08091142a78ab5d19e3bff63fa6c5b5836003015460405161110e91815260200190565b60405180910390a150505050565b60026001540361116e5760405162461bcd60e51b815260206004820152601f60248201527f5265656e7472616e637947756172643a207265656e7472616e742063616c6c00604482015260640161044a565b6002600155565b8280548282559060005260206000209081019282156111b0579160200282015b828111156111b0578251825591602001919060010190611195565b506111bc9291506111c0565b5090565b5b808211156111bc57600081556001016111c1565b6000602082840312156111e757600080fd5b5035919050565b60006020828403121561120057600080fd5b81356001600160a01b038116811461121757600080fd5b9392505050565b6080808252855190820181905260009060209060a0840190828901845b828110156112575781518452928401929084019060010161123b565b5050508381038285015286518082528783019183019060005b8181101561128c57835183529284019291840191600101611270565b505060408501969096525050506060015292915050565b634e487b7160e01b600052604160045260246000fd5b604051601f8201601f1916810167ffffffffffffffff811182821017156112e2576112e26112a3565b604052919050565b600067ffffffffffffffff821115611304576113046112a3565b5060051b60200190565b600082601f83011261131f57600080fd5b8135602061133461132f836112ea565b6112b9565b82815260059290921b8401810191818101908684111561135357600080fd5b8286015b8481101561136e5780358352918301918301611357565b509695505050505050565b600082601f83011261138a57600080fd5b8135602061139a61132f836112ea565b82815260059290921b840181019181810190868411156113b957600080fd5b8286015b8481101561136e57803567ffffffffffffffff8111156113dd5760008081fd5b6113eb8986838b010161130e565b8452509183019183016113bd565b600082601f83011261140a57600080fd5b8135602061141a61132f836112ea565b82815260059290921b8401810191818101908684111561143957600080fd5b8286015b8481101561136e57803567ffffffffffffffff81111561145d5760008081fd5b61146b8986838b010161130e565b84525091830191830161143d565b600080600080600060a0868803121561149157600080fd5b853567ffffffffffffffff808211156114a957600080fd5b6114b589838a0161130e565b965060208801359150808211156114cb57600080fd5b6114d789838a0161130e565b955060408801359150808211156114ed57600080fd5b6114f989838a01611379565b9450606088013591508082111561150f57600080fd5b61151b89838a016113f9565b9350608088013591508082111561153157600080fd5b5061153e8882890161130e565b9150509295509295909350565b6000806040838503121561155e57600080fd5b823591506020830135801515811461157557600080fd5b809150509250929050565b600080600080600060a0868803121561159857600080fd5b8535945060208601359350604086013567ffffffffffffffff808211156115be57600080fd5b6115ca89838a0161130e565b945060608801359150808211156115e057600080fd5b506115ed8882890161130e565b95989497509295608001359392505050565b634e487b7160e01b600052603260045260246000fd5b634e487b7160e01b600052601160045260246000fd5b60006001820161163d5761163d611615565b5060010190565b60208082526021908201527f50726f6f6620616e6420696e6469636573206c656e677468206d69736d6174636040820152600d60fb1b606082015260800190565b60008161169457611694611615565b506000190190565b80820281158282048414176116b3576116b3611615565b92915050565b6000826116d657634e487b7160e01b600052601260045260246000fd5b50049056fea2646970667358221220b6698805337b0c977c22e28056c9a09edeee26006bb1569a8bf6aeb397f6125a64736f6c63430008130033",
  "linkReferences": {},
  "deployedLinkReferences": {}
}